:100000000C945D000C9485000C9485000C94850084
:100010000C9485000C9485000C9485000C9485004C
:100020000C9485000C9485000C9485000C9485003C
:100030000C9485000C9485000C9485000C9485002C
:100040000C948D030C9485000C94FD030C94D70341
:100050000C9485000C9485000C9485000C9485000C
:100060000C9485000C94850000000008000201003B
:100070000003040700000000000000000000000072
:10008000250028002B0000000000240027002A0083
:10009000040404040404040402020202020203032E
:1000A0000303030301020408102040800102040836
:1000B00010200102040810202F0411241FBECFEFCE
:1000C000D8E0DEBFCDBF11E0A0E0B1E0E4E5FCE0A8
:1000D00002C005900D92AE34B107D9F722E0AEE42C
:1000E000B1E001C01D92AE30B207E1F710E0CDE5FE
:1000F000D0E004C02197FE010E942206CC35D10732
:10010000C9F70E9479040C9428060C94000090E032
:10011000FC01EC55FF4F249180579F4FFC018491C7
:10012000882399F090E0880F991FFC01EA57FF4F50
:10013000A591B491FC01E458FF4F859194918FB73C
:10014000F894EC91E22BEC938FBF0895FC01538D52
:10015000448D252F30E0842F90E0821B930B5417A1
:1001600010F0CF96089501970895FC01918D828D2E
:10017000981761F0A28DAE0FBF2FB11D5D968C91C7
:10018000928D9F5F9F73928F90E008958FEF9FEF06
:100190000895FC01918D828D981731F0828DE80FC2
:1001A000F11D858D90E008958FEF9FEF0895FC017C
:1001B000918D228D892F90E0805C9F4F821B910949
:1001C0008F7399270895FC01A48DA80FB92FB11D35
:1001D000A35ABF4F2C91848D90E001968F7399277D
:1001E000848FA689B7892C93A089B1898C9183705B
:1001F00080648C93938D848D981306C00288F38954
:10020000E02D80818F7D80830895EF92FF920F9380
:100210001F93CF93DF93EC0181E0888F9B8D8C8DB2
:1002200098131AC0E889F989808185FF15C09FB7A6
:10023000F894EE89FF896083E889F9898081837069
:10024000806480839FBF81E090E0DF91CF911F9118
:100250000F91FF90EF900895F62E0B8D10E00F5F39
:100260001F4F0F731127E02E8C8D8E110CC00FB60F
:1002700007FCFACFE889F989808185FFF5CFCE01A7
:100280000E94E300F1CFEB8DEC0FFD2FF11DE35A3F
:10029000FF4FF0829FB7F8940B8FEA89FB8980812A
:1002A0008062CFCFCF93DF93EC01888D8823B9F0A4
:1002B000AA89BB89E889F9898C9185FD03C0808171
:1002C00086FD0DC00FB607FCF7CF8C9185FFF2CFEE
:1002D000808185FFEDCFCE010E94E300E9CFDF9161
:1002E000CF91089589E591E00E94D70021E0892B04
:1002F00009F420E0822F089580E090E0892B29F016
:100300000E94720181110C940000089590E0FC019C
:10031000E859FF4F2491FC01EC55FF4F3491FC014B
:10032000E057FF4FE491EE23C9F0222339F0233048
:1003300001F1A8F4213019F1223029F1F0E0EE0F9B
:10034000FF1FE458FF4FA591B4918FB7F894EC913B
:10035000611126C030953E233C938FBF089527300E
:10036000A9F02830C9F0243049F7809180008F7DB2
:1003700003C0809180008F7780938000DFCF84B5A9
:100380008F7784BDDBCF84B58F7DFBCF8091B000AC
:100390008F778093B000D2CF8091B0008F7DF9CF5E
:1003A0003E2BDACF3FB7F8948091550190915601DA
:1003B000A0915701B091580126B5A89B05C02F3FC9
:1003C00019F00196A11DB11D3FBFBA2FA92F982F7B
:1003D0008827BC01CD01620F711D811D911D42E076
:1003E000660F771F881F991F4A95D1F70895AF921E
:1003F000BF92CF92DF92EF92FF920F931F93CF9312
:10040000DF936C017B018B01040F151FEB015E0173
:10041000AE18BF08C017D10759F06991D601ED9108
:10042000FC910190F081E02DC6010995892B79F7A7
:10043000C501DF91CF911F910F91FF90EF90DF9059
:10044000CF90BF90AF900895089590E080E0089518
:10045000CF93DF93EC0160E08E810E94860161E022
:100460008E810E94860160E08E810E9486018BE869
:1004700091E00197F1F7DF91CF910895CF92DF924C
:10048000EF92FF920F931F93CF93DF936C017C0148
:1004900087E0E80EF11CD0E0C0E0062F10E0B801C4
:1004A0000C2E02C0759567950A94E2F76170F7010A
:1004B00081917F010E9486012196C430D10579F790
:1004C000C601DF91CF911F910F91FF90EF90DF90C8
:1004D000CF900C942802CF92DF92EF92FF920F936D
:1004E0001F93CF93DF93EC01F62E642F8C810E9433
:1004F00086018D818F3F19F060E00E9486010F2DEB
:1005000010E08F8584FF25C06E0187E0C80ED11CE6
:10051000F12CE12CB8010E2C02C0759567950A9458
:10052000E2F76170F60181916F010E948601FFEF91
:10053000EF1AFF0A88E0E816F10461F7CE01DF91B7
:10054000CF911F910F91FF90EF90DF90CF900C947F
:100550002802B80184E0759567958A95E1F7CE0188
:100560000E943E026F2DCE01DF91CF911F910F911E
:10057000FF90EF90DF90CF900C943E0240E0682F08
:1005800086EF91E00C946B0281E00E94BE028BE347
:100590009FE10197F1F70895CF93DF93823029F41B
:1005A0009091050298609093050280930902109241
:1005B0000A0280E480930B0280E180930C0280E5C4
:1005C00080930D028091FA010E9487008091FB01C7
:1005D0008F3F11F00E9487008091FC010E948700EC
:1005E000C6EFD1E09E01265F31408091050284FD77
:1005F0000AC084E090E02196281739073CF48E81E8
:100600000E948700EFCF88E090E0F5CF8BE39DE07C
:100610000197F1F760E08091FA010E94860160E0A5
:100620008091FC010E9486018091FB018F3F19F0AF
:1006300060E00E9486018091050284FD34C063E081
:1006400086EF91E00E943E02CBE4D6E4CE01019712
:10065000F1F763E086EF91E00E943E022197F1F707
:1006600063E086EF91E00E943E0283E592E001970D
:10067000F1F762E086EF91E00E943E028091050270
:1006800080620E94BE0284E0809306028CE00E9499
:10069000BE020E94C40282E08093070286E0DF91DE
:1006A000CF910C94BE0280620E94BE028BE496E45D
:1006B0000197F1F78091050280620E94BE0283E5F6
:1006C00092E00197F1F78091050280620E94BE02DC
:1006D000D5CF90910902891710F08FEF890FE82F7D
:1006E000F0E0EA50FE4F84898F5F80680C94BE0270
:1006F00041E00E946B0281E090E00895FB010190CF
:100700000020E9F73197AF01461B570BDC01ED9153
:10071000FC910280F381E02D09941F920F920FB695
:100720000F9211242F933F938F939F93AF93BF9377
:100730008091510190915201A0915301B0915401C7
:100740003091500123E0230F2D3758F50196A11D5C
:10075000B11D209350018093510190935201A093B9
:100760005301B09354018091550190915601A0918D
:100770005701B09158010196A11DB11D80935501FB
:1007800090935601A0935701B0935801BF91AF9138
:100790009F918F913F912F910F900FBE0F901F90BF
:1007A000189526E8230F0296A11DB11DD2CF1F92E6
:1007B0000F920FB60F9211242F933F934F935F9395
:1007C0006F937F938F939F93AF93BF93EF93FF9319
:1007D00089E591E00E94E300FF91EF91BF91AF9115
:1007E0009F918F917F916F915F914F913F912F9149
:1007F0000F900FBE0F901F9018951F920F920FB67B
:100800000F9211242F938F939F93EF93FF93E09177
:100810006901F0916A018081E0916F01F0917001AE
:1008200082FD1BC09081809172018F5F8F73209138
:100830007301821741F0E0917201F0E0E75AFE4F38
:10084000958F80937201FF91EF919F918F912F91DE
:100850000F900FBE0F901F9018958081F4CFE9E59F
:10086000F1E01382128288EE93E0A0E0B0E084838E
:100870009583A683B78384E091E09183808385ECA0
:1008800090E09587848784EC90E09787868780EC5A
:1008900090E0918B808B81EC90E0938B828B82EC4B
:1008A00090E0958B848B86EC90E0978B868B118EF5
:1008B000128E138E148EE6EFF1E01382128286E11F
:1008C00091E0918380838CE084838FEF85838BE03C
:1008D000868385E0878384E0808783E0818782E068
:1008E00082871386148615861686178681E00C94F7
:1008F000CC02CF93DF93CDB7DEB7A1970FB6F894B4
:10090000DEBF0FBECDBF789484B5826084BD84B550
:10091000816084BD85B5826085BD85B5816085BDFA
:1009200080916E00816080936E00109281008091B2
:10093000810082608093810080918100816080933A
:100940008100809180008160809380008091B1005F
:1009500084608093B1008091B00081608093B0008A
:1009600080917A00846080937A0080917A0082601E
:1009700080937A0080917A00816080937A008091E0
:100980007A00806880937A001092C10088E00E940B
:10099000870089E00E9487008AE00E9487000E9409
:1009A000C40282E00E94CC0280E00E9469036EE1F2
:1009B00071E086EF91E00E947E0381E00E9469036E
:1009C0006BE271E086EF91E00E947E030E94D2010B
:1009D0002B013C0138EEC32E33E0D32EE12CF12C59
:1009E0000E94D2016419750986099709683E73400F
:1009F00081059105A8F321E0C21AD108E108F108A8
:100A000088EE480E83E0581E611C711CC114D1048D
:100A1000E104F10429F70E94C40280E4382E442442
:100A20004A9493E0592E612C712C2AE0C22ED12CCD
:100A3000E12CF12C30927C0080917A0080648093CC
:100A40007A0080917A0086FDFCCFA0917800B09169
:100A500079002FEF30E00E941B06A30192010E9453
:100A6000CB0549015A0130934F0120934E01B7FE47
:100A70007EC06DE289E591E00E94050122273327BF
:100A8000A901281939094A095B0919A28E010F5DCC
:100A90001F4FCA01B901A70196010E94EA05605DD6
:100AA000F80162938F01211531054105510589F740
:100AB0000115110529F0B80189E591E00E947E0336
:100AC00063E371E089E591E00E947E0380914E012D
:100AD00090914F018C3D9105DCF480E00E94690308
:100AE00066E371E086EF91E00E947E0363E371E0CC
:100AF00086EF91E00E947E0361E088E00E9486011B
:100B000061E089E00E94860161E08AE00E9486013E
:100B100080914E0190914F018D3D9105DCF060E098
:100B200088E00E94860160E089E00E94860160E022
:100B30008AE00E94860180E00E94690362E471E01D
:100B400086EF91E00E947E0363E371E086EF91E01F
:100B50000E947E0380E090E0892B09F46BCF0E9415
:100B60007201882309F466CF0E94000063CF19A2A6
:100B70008E010F5D1F4FCA01B901A70196010E94A6
:100B8000EA05605DF80162938F0121153105410589
:100B9000510589F78DCF052E97FB1EF400940E9416
:100BA000E20557FD07D00E94EA0507FC03D04EF48A
:100BB0000C94E20550954095309521953F4F4F4F4D
:100BC0005F4F089590958095709561957F4F8F4FF9
:100BD0009F4F0895A1E21A2EAA1BBB1BFD010DC059
:100BE000AA1FBB1FEE1FFF1FA217B307E407F507DD
:100BF00020F0A21BB30BE40BF50B661F771F881FB9
:100C0000991F1A9469F760957095809590959B014E
:100C1000AC01BD01CF010895A29FB001B39FC001F7
:100C2000A39F700D811D1124911DB29F700D811D18
:100C30001124911D08950E940C06B7FF0895821B90
:100C4000930B0895EE0FFF1F0590F491E02D09948A
:040C5000F894FFCF46
:100C5400000000000501F701A6005201D700B5000D
:100C6400C900000000007803F70125022402537430
:100C740072656574204C696768740050726F6A65A8
:100C84006374000D0A004C6F77204C696768742008
:0E0C9400200048696768204C6967687400009A
:00000001FF
